{
  "_format": "hh-sol-artifact-1",
  "contractName": "StakeERC20",
  "sourceName": "contracts/StakeERC20.sol",
  "abi": [
    {
      "inputs": [
        {
          "internalType": "address",
          "name": "_tokenAddress",
          "type": "address"
        }
      ],
      "stateMutability": "nonpayable",
      "type": "constructor"
    },
    {
      "inputs": [],
      "name": "currentRewardPerToken",
      "outputs": [
        {
          "internalType": "uint256",
          "name": "",
          "type": "uint256"
        }
      ],
      "stateMutability": "view",
      "type": "function"
    },
    {
      "inputs": [],
      "name": "lastUpdateTime",
      "outputs": [
        {
          "internalType": "uint256",
          "name": "",
          "type": "uint256"
        }
      ],
      "stateMutability": "view",
      "type": "function"
    },
    {
      "inputs": [],
      "name": "myReward",
      "outputs": [
        {
          "internalType": "uint256",
          "name": "",
          "type": "uint256"
        }
      ],
      "stateMutability": "view",
      "type": "function"
    },
    {
      "inputs": [],
      "name": "owner",
      "outputs": [
        {
          "internalType": "address",
          "name": "",
          "type": "address"
        }
      ],
      "stateMutability": "view",
      "type": "function"
    },
    {
      "inputs": [],
      "name": "rewardRatePerSec",
      "outputs": [
        {
          "internalType": "uint256",
          "name": "",
          "type": "uint256"
        }
      ],
      "stateMutability": "view",
      "type": "function"
    },
    {
      "inputs": [
        {
          "internalType": "uint256",
          "name": "_amount",
          "type": "uint256"
        },
        {
          "internalType": "uint256",
          "name": "_duration",
          "type": "uint256"
        }
      ],
      "name": "stake",
      "outputs": [],
      "stateMutability": "nonpayable",
      "type": "function"
    },
    {
      "inputs": [],
      "name": "tokenAddress",
      "outputs": [
        {
          "internalType": "address",
          "name": "",
          "type": "address"
        }
      ],
      "stateMutability": "view",
      "type": "function"
    },
    {
      "inputs": [],
      "name": "totalStakedAmountBal",
      "outputs": [
        {
          "internalType": "uint256",
          "name": "",
          "type": "uint256"
        }
      ],
      "stateMutability": "view",
      "type": "function"
    },
    {
      "inputs": [
        {
          "internalType": "address",
          "name": "",
          "type": "address"
        }
      ],
      "name": "users",
      "outputs": [
        {
          "internalType": "uint256",
          "name": "stakedBalance",
          "type": "uint256"
        },
        {
          "internalType": "uint256",
          "name": "rewardPerTokenPaid",
          "type": "uint256"
        },
        {
          "internalType": "uint256",
          "name": "endStakeDate",
          "type": "uint256"
        }
      ],
      "stateMutability": "view",
      "type": "function"
    },
    {
      "inputs": [],
      "name": "withdraw",
      "outputs": [],
      "stateMutability": "nonpayable",
      "type": "function"
    }
  ],
  "bytecode": "0x6080604052600a6005553480156200001657600080fd5b50604051620013f5380380620013f583398181016040528101906200003c91906200012e565b336000806101000a81548173ffffffffffffffffffffffffffffffffffffffff021916908373ffffffffffffffffffffffffffffffffffffffff16021790555080600160006101000a81548173ffffffffffffffffffffffffffffffffffffffff021916908373ffffffffffffffffffffffffffffffffffffffff1602179055505062000160565b600080fd5b600073ffffffffffffffffffffffffffffffffffffffff82169050919050565b6000620000f682620000c9565b9050919050565b6200010881620000e9565b81146200011457600080fd5b50565b6000815190506200012881620000fd565b92915050565b600060208284031215620001475762000146620000c4565b5b6000620001578482850162000117565b91505092915050565b61128580620001706000396000f3fe608060405234801561001057600080fd5b506004361061009e5760003560e01c80638da5cb5b116100665780638da5cb5b146101235780639d76ea5814610141578063a87430ba1461015f578063bddff59214610191578063c8f33c91146101af5761009e565b80630f3e4e47146100a357806332121e23146100c15780633ccfd60b146100df57806342849570146100e95780637b0472f014610107575b600080fd5b6100ab6101cd565b6040516100b89190610b92565b60405180910390f35b6100c96101d3565b6040516100d69190610b92565b60405180910390f35b6100e76101d9565b005b6100f16105c3565b6040516100fe9190610b92565b60405180910390f35b610121600480360381019061011c9190610bde565b61078f565b005b61012b610af9565b6040516101389190610c5f565b60405180910390f35b610149610b1d565b6040516101569190610c5f565b60405180910390f35b61017960048036038101906101749190610ca6565b610b43565b60405161018893929190610cd3565b60405180910390f35b610199610b6d565b6040516101a69190610b92565b60405180910390f35b6101b7610b73565b6040516101c49190610b92565b60405180910390f35b60045481565b60025481565b600073ffffffffffffffffffffffffffffffffffffffff163373ffffffffffffffffffffffffffffffffffffffff1603610248576040517f08c379a000000000000000000000000000000000000000000000000000000000815260040161023f90610d67565b60405180910390fd5b60006004541161028d576040517f08c379a000000000000000000000000000000000000000000000000000000000815260040161028490610dd3565b60405180910390fd5b6000600660003373ffffffffffffffffffffffffffffffffffffffff1673ffffffffffffffffffffffffffffffffffffffff1681526020019081526020016000206000015411610312576040517f08c379a000000000000000000000000000000000000000000000000000000000815260040161030990610e3f565b60405180910390fd5b600660003373ffffffffffffffffffffffffffffffffffffffff1673ffffffffffffffffffffffffffffffffffffffff16815260200190815260200160002060020154421015610397576040517f08c379a000000000000000000000000000000000000000000000000000000000815260040161038e90610eab565b60405180910390fd5b6000600660003373ffffffffffffffffffffffffffffffffffffffff1673ffffffffffffffffffffffffffffffffffffffff168152602001908152602001600020905060008160000154905060008260000181905550600354426103fb9190610efa565b60045460055461040b9190610f5d565b6104159190610f8e565b600260008282546104269190610fd0565b92505081905550600082600101546002546104419190610efa565b8261044c9190610f8e565b90506002548360010181905550600082826104679190610fd0565b9050600083905080600460008282546104809190610efa565b92505081905550600160009054906101000a900473ffffffffffffffffffffffffffffffffffffffff1673ffffffffffffffffffffffffffffffffffffffff1663a0712d68846040518263ffffffff1660e01b81526004016104e29190610b92565b600060405180830381600087803b1580156104fc57600080fd5b505af1158015610510573d6000803e3d6000fd5b50505050600160009054906101000a900473ffffffffffffffffffffffffffffffffffffffff1673ffffffffffffffffffffffffffffffffffffffff1663a9059cbb33846040518363ffffffff1660e01b8152600401610571929190611004565b6020604051808303816000875af1158015610590573d6000803e3d6000fd5b505050506040513d601f19601f820116820180604052508101906105b49190611065565b50426003819055505050505050565b60008073ffffffffffffffffffffffffffffffffffffffff163373ffffffffffffffffffffffffffffffffffffffff1603610633576040517f08c379a000000000000000000000000000000000000000000000000000000000815260040161062a90610d67565b60405180910390fd5b6000600660003373ffffffffffffffffffffffffffffffffffffffff1673ffffffffffffffffffffffffffffffffffffffff16815260200190815260200160002060000154116106b8576040517f08c379a00000000000000000000000000000000000000000000000000000000081526004016106af90610e3f565b60405180910390fd5b6000600660003373ffffffffffffffffffffffffffffffffffffffff1673ffffffffffffffffffffffffffffffffffffffff168152602001908152602001600020604051806060016040529081600082015481526020016001820154815260200160028201548152505090506000600354426107349190610efa565b6004546005546107449190610f5d565b61074e9190610f8e565b90506000816002546107609190610fd0565b905060008360200151826107749190610efa565b84600001516107839190610f8e565b90508094505050505090565b600073ffffffffffffffffffffffffffffffffffffffff163373ffffffffffffffffffffffffffffffffffffffff16036107fe576040517f08c379a00000000000000000000000000000000000000000000000000000000081526004016107f590610d67565b60405180910390fd5b60008211610841576040517f08c379a0000000000000000000000000000000000000000000000000000000008152600401610838906110de565b60405180910390fd5b60008111610884576040517f08c379a000000000000000000000000000000000000000000000000000000000815260040161087b9061114a565b60405180910390fd5b6000600660003373ffffffffffffffffffffffffffffffffffffffff1673ffffffffffffffffffffffffffffffffffffffff16815260200190815260200160002090506000600454111561091357600354426108e09190610efa565b6004546005546108f09190610f5d565b6108fa9190610f8e565b6002600082825461090b9190610fd0565b925050819055505b60025481600101819055506000600160009054906101000a900473ffffffffffffffffffffffffffffffffffffffff1673ffffffffffffffffffffffffffffffffffffffff166370a08231336040518263ffffffff1660e01b815260040161097b9190610c5f565b602060405180830381865afa158015610998573d6000803e3d6000fd5b505050506040513d601f19601f820116820180604052508101906109bc919061117f565b905083811015610a01576040517f08c379a00000000000000000000000000000000000000000000000000000000081526004016109f8906111f8565b60405180910390fd5b600160009054906101000a900473ffffffffffffffffffffffffffffffffffffffff1673ffffffffffffffffffffffffffffffffffffffff166323b872dd3330876040518463ffffffff1660e01b8152600401610a6093929190611218565b6020604051808303816000875af1158015610a7f573d6000803e3d6000fd5b505050506040513d601f19601f82011682018060405250810190610aa39190611065565b508242610ab09190610fd0565b82600201819055508360046000828254610aca9190610fd0565b9250508190555083826000016000828254610ae59190610fd0565b925050819055504260038190555050505050565b60008054906101000a900473ffffffffffffffffffffffffffffffffffffffff1681565b600160009054906101000a900473ffffffffffffffffffffffffffffffffffffffff1681565b60066020528060005260406000206000915090508060000154908060010154908060020154905083565b60055481565b60035481565b6000819050919050565b610b8c81610b79565b82525050565b6000602082019050610ba76000830184610b83565b92915050565b600080fd5b610bbb81610b79565b8114610bc657600080fd5b50565b600081359050610bd881610bb2565b92915050565b60008060408385031215610bf557610bf4610bad565b5b6000610c0385828601610bc9565b9250506020610c1485828601610bc9565b9150509250929050565b600073ffffffffffffffffffffffffffffffffffffffff82169050919050565b6000610c4982610c1e565b9050919050565b610c5981610c3e565b82525050565b6000602082019050610c746000830184610c50565b92915050565b610c8381610c3e565b8114610c8e57600080fd5b50565b600081359050610ca081610c7a565b92915050565b600060208284031215610cbc57610cbb610bad565b5b6000610cca84828501610c91565b91505092915050565b6000606082019050610ce86000830186610b83565b610cf56020830185610b83565b610d026040830184610b83565b949350505050565b600082825260208201905092915050565b7f41646472657373207a65726f2064657465637465640000000000000000000000600082015250565b6000610d51601583610d0a565b9150610d5c82610d1b565b602082019050919050565b60006020820190508181036000830152610d8081610d44565b9050919050565b7f4e6f2066756e6420696e207374616b696e6720706f6f6c000000000000000000600082015250565b6000610dbd601783610d0a565b9150610dc882610d87565b602082019050919050565b60006020820190508181036000830152610dec81610db0565b9050919050565b7f4e6f206465706f736974206d6164650000000000000000000000000000000000600082015250565b6000610e29600f83610d0a565b9150610e3482610df3565b602082019050919050565b60006020820190508181036000830152610e5881610e1c565b9050919050565b7f5769746864726177616c2064617465206e6f2072656163686564000000000000600082015250565b6000610e95601a83610d0a565b9150610ea082610e5f565b602082019050919050565b60006020820190508181036000830152610ec481610e88565b9050919050565b7f4e487b7100000000000000000000000000000000000000000000000000000000600052601160045260246000fd5b6000610f0582610b79565b9150610f1083610b79565b9250828203905081811115610f2857610f27610ecb565b5b92915050565b7f4e487b7100000000000000000000000000000000000000000000000000000000600052601260045260246000fd5b6000610f6882610b79565b9150610f7383610b79565b925082610f8357610f82610f2e565b5b828204905092915050565b6000610f9982610b79565b9150610fa483610b79565b9250828202610fb281610b79565b91508282048414831517610fc957610fc8610ecb565b5b5092915050565b6000610fdb82610b79565b9150610fe683610b79565b9250828201905080821115610ffe57610ffd610ecb565b5b92915050565b60006040820190506110196000830185610c50565b6110266020830184610b83565b9392505050565b60008115159050919050565b6110428161102d565b811461104d57600080fd5b50565b60008151905061105f81611039565b92915050565b60006020828403121561107b5761107a610bad565b5b600061108984828501611050565b91505092915050565b7f416d6f756e742063616e6e6f74206265207a65726f0000000000000000000000600082015250565b60006110c8601583610d0a565b91506110d382611092565b602082019050919050565b600060208201905081810360008301526110f7816110bb565b9050919050565b7f696e76616c6964206475726174696f6e00000000000000000000000000000000600082015250565b6000611134601083610d0a565b915061113f826110fe565b602082019050919050565b6000602082019050818103600083015261116381611127565b9050919050565b60008151905061117981610bb2565b92915050565b60006020828403121561119557611194610bad565b5b60006111a38482850161116a565b91505092915050565b7f696e73756666696369656e742066756e64000000000000000000000000000000600082015250565b60006111e2601183610d0a565b91506111ed826111ac565b602082019050919050565b60006020820190508181036000830152611211816111d5565b9050919050565b600060608201905061122d6000830186610c50565b61123a6020830185610c50565b6112476040830184610b83565b94935050505056fea264697066735822122019d1f4d39827be0d28111006842df8ef6fcb4cf14b3ae4e7819cd625155f5df364736f6c63430008180033",
  "linkReferences": {},
  "deployedLinkReferences": {}
}